:10000000BC040010A10800009D0800009D0800002D
:100010009D0800009D0800009D08000000000000F1
:100020000000000000000000000000009D0800002B
:100030009D080000000000009D0800009D080000D1
:100040009D0800009D0800009D0800009D0800001C
:100050009D0800009D0800009D0800009D0800000C
:100060009D0800009D0800009D0800009D080000FC
:100070009D0800009D0800009D0800009D080000EC
:100080009D0800009D0800009D0800009D080000DC
:100090009D0800009D0800009D0800009D080000CC
:1000A0009D0800009D0800009D0800009D080000BC
:1000B0009D080000190500009D0800009D08000033
:1000C0009D0800009D0800009D080000426803682C
:1000D0009A424FF0000302D3436001207047426808
:1000E0000132426018467047426803689A424FF0F6
:1000F000000302D3436001207047426889184160C1
:1001000018467047024A00231380024A5360704722
:1001100010000010000000102DE9F341804C2088F1
:10012000431C238000F0E2FB00F0F003802B00F082
:100130000F0500F0828012D8402B4FD007D8202B1B
:1001400037D0302B3FD0102B40F0E6801DE0602BE5
:100150005ED0702B6AD0502B40F0DE8047E0C02B81
:1001600000F09A8007D8A02B7AD0B02B7FD0902BAC
:1001700040F0D28064E0E02B00F09E80F02B00F095
:10018000AB80D02B40F0C8808BE0208800F0B4FB1F
:100190003C23B0FBF3F083B24FF4FA52B2FBF3F21C
:1001A000604B013A00201A60586023880233238094
:1001B000B3E02088431C238000F098FB14235D43A8
:1001C000594B5855A8E02088431C238000F08EFB33
:1001D000554B142202FB053528749DE02088431CF2
:1001E000238000F083FB504B83F8780094E0208854
:1001F000431C238000F07AFB4C4B4B4A00F07F00FD
:1002000014211B5C01FB05200021837004300AE0EF
:10021000454B142202FB05352B7918460BB9AB7000
:100220007BE0281D032100F0FBF975E0404A002324
:10023000136002F510321372FEE700F0CDF96BE0A7
:100240002088431C238000F051FB374B142200F020
:100250000F0002FB003002FB0535C178E9705BE05E
:10026000314B142202FB05350020E87055E0208850
:10027000431C238000F03AFB07284DD82A4B142258
:1002800002FB05352B4603F8040F1846002100F049
:10029000C7F90123AB713FE0208800F02DFB2080DF
:1002A0003AE02088431C238000F020FB1E4B1422E0
:1002B00002FB053568702FE02088431C238000F086
:1002C00015FB0024054603E0FFF726FF0134E4B2E6
:1002D000AC42F9D1012020E0208800F00DFB8046DF
:1002E0002088023080B2208000F006FB2388074679
:1002F000981CDA1C80B2228000F0F8FA06462088AA
:1003000000F0FAFA23884146023323803A460090EF
:100310003346284600F010FA0020BDE8FC8100BFFB
:100320001000001000000010440000100E09000032
:1003300000C0084010B50A48FFF7C8FE78B1094B65
:10034000094A19881288914201D300221A80062492
:10035000FFF7E2FE18B9013C14F0FF04F8D110BD1C
:1003600000000010100000100C090000294B10B50F
:10037000D3F88820D3F80C11C2F30162032A01F0EC
:100380000301254A33D101290CD002291BD0D3F80F
:100390008840D3F88800D3F8041163045B0C013360
:1003A0001E4C09E0D3F88840D3F88800D3F8041134
:1003B00063045B0C1A4C01336343C0F30740013004
:1003C000B3FBF0F30EE0D3F88800D3F88840400484
:1003D000D3F804114008C4F3074300F5803001331B
:1003E000B0FBF3F3C9B20131B3FBF1F30FE0D3F883
:1003F0000431DBB20133012903D0022903D00949BA
:1004000003E0094901E04FF40041B1FBF3F313604D
:1004100010BD00BF00C00F400800001000127A009D
:1004200000366E0100093D00001BB700364B20224C
:10043000C3F8A021D3F8A021910603D5D3F8A021B9
:100440005206FBD50322C3F804210022C3F8A821D9
:10045000C3F8AC212D4A0120C3F80C01AA21C3F82E
:1004600084205522C3F88C10C3F88C20C3F8800078
:10047000C3F88C102449C3F88C20D1F88830224A64
:1004800013F0806FF9D00323C2F88030AA23C2F89A
:100490008C305523C2F88C30D2F888101A4B11F0EA
:1004A000407FF9D02322C3F8A420AA21552201209D
:1004B000C3F8AC10C3F8AC20C3F8A000C3F8AC106C
:1004C000C3F8AC20D3F8A82012F4806F0E4AF9D0FC
:1004D0000323C2F8A030AA23C2F8AC305523C2F8D7
:1004E000AC30D2F8A810084B11F4407FF9D0084A7C
:1004F00043F23A01C3F8C4200022C3F8C8211960AE
:10050000044B9A60704700BF00C00F4063000500B5
:10051000DE87280400ED00E02DE9F0472B4BDFF8E3
:10052000B0901A7A002542F001021A72FFF702FF1A
:100530002E464FF01408CA4608FB0597384600F0CF
:100540005FF90446384600F0A3F9381D00F0B4F80E
:100550003CB128B14443C4F307240134E4B200E0C1
:10056000044608FB05A31B7C3CB12BB15C43C4F3E0
:1005700007240134E4B200E01C467F3E0135A61991
:10058000062DB6B2D8D133B2FF2203F2FA23534379
:1005900040F2F45193FBF1F39BB219B2914202DCA9
:1005A00023EAE17300E01346094A9BB292F87820EF
:1005B00033B122B153431B120133DBB200E01346C7
:1005C000044A1B021360BDE8F08700BF00000B4027
:1005D0004400001000C008402DE9F8430F4B0025EF
:1005E00083F8785098464FF014092E4609FB05F71A
:1005F00008EB070420462674002100F8046F00F081
:100600000FF801350123A3717F23062D08F8076039
:100610006370A670E670E9D1BDE8F883440000106D
:100620000378002B45D0417083780BB10023C37051
:1006300003293CD8DFE801F0020D1A2602781D4B91
:10064000013A33F83230FF229BB29B0293FBF2F364
:1006500015E0FF23C37002781649013A01EBC2028C
:10066000528892B2920292FBF3F308E00378114AA7
:10067000013B02EBC3031B79C3704FF0FF334360B0
:10068000002313E0837893B901780A4A013902EB19
:10069000C1010979C1700178013902EBC102D28828
:1006A000FF2192B2920292FBF1F24260836000233A
:1006B000837070471200001010B503780446002BB9
:1006C00034D08378002B33D104304FF48061FFF7AE
:1006D0000BFD48B3637843B9E378FD2B02DD204678
:1006E000012111E0E37801331CE06378012B0ED186
:1006F000E27823780F49013B01EBC3031B79013AF0
:100700009A420DDC20460221FFF78AFF0CE0637855
:10071000032B09D1E378012B02DC0123A37003E052
:10072000E378013BDBB2E370E07810BDFF2010BD41
:10073000002010BD120000100138C0B2062870B5AC
:100740001FD84FF47A75B5FBF1F64FF4FA54B4FBA9
:10075000F6F60C49013EB6B221F83060B5FBF2F670
:10076000B4FBF6F6013E01EBC002B6B2568013713F
:10077000BDF81030B5FBF3F5B4FBF5F4013CA4B2C1
:10078000D48070BD1200001008B5FFF74FFEFFF7D0
:10079000EDFD174B4FF400125A60FFF7B3FCFFF763
:1007A0001BFF144B4FF4FA51D3F8C42042F48032AB
:1007B000C3F8C420A3F598231A7A02F0FC021A7237
:1007C0000D4A12689208B2FBF1F2013A1A60002257
:1007D000DA600A4A4FF0005111601A7A42F00302BF
:1007E0001A721A7A42F00A021A72FFF795FCFEE7B3
:1007F00000C0024000C00F400800001000E100E00F
:10080000214B1A68196882EA41321A601A6819681D
:1008100082EA51421A601A68196882EA41121A6023
:100820000278013A052A2CD8DFE802F003071C23DE
:100830002729C378154AD05C7047C3783F2B04D86A
:10084000C0784000C0F17F000AE0C378C078BF2BB9
:1008500002D84038400003E0C0F1C0004000FF3043
:1008600080B208E0C27843789A4294BFFF2000200B
:100870007047C0787F30C0B270471868FBE7407897
:1008800070477F20704700BF0C0000108E090000E9
:10089000C3788278D318DBB2C3707047FEE70000DC
:1008A00010B500230C4A0D480D4C02E0195999501F
:1008B000043399188142F9D30A480B494FF00002DA
:1008C0008842B8BF40F8042BFFF6FAAFFFF7AEFD41
:1008D000BDE81040FFF758BF0000001010000010E6
:1008E0007425000010000010C0000010014B185CBF
:1008F000704700BF8E0A0000034BC218C05C5378DB
:0E09000043EA0020704700BF8E0A0000E31A91
:10090E0000000000000000000000000001010101D5
:10091E0001010101010101010101010101010102B8
:10092E00020202020202020203030303030404048E
:10093E000404050505060606070707080809090A3F
:10094E000B0B0C0D0D0E0F1011121314151618198A
:10095E001B1C1E20222326282A2D2F3235383C3FE1
:10096E0043474B5054595F646A71777E868E969FCB
:10097E00A9B3BDC9D5E1EFFD0000000000000000E5
:10098E007F8285888B8F9295989B9EA1A4A7AAADF6
:10099E00B0B3B5B8BBBEC1C3C6C8CBCDD0D2D5D708
:1009AE00D9DBDDDFE1E3E5E7E9EBECEEEFF1F2F3C6
:1009BE00F5F6F7F8F9FAFAFBFCFCFDFDFDFEFEFE7E
:1009CE00FEFEFEFEFDFDFCFCFBFBFAF9F8F7F6F56C
:1009DE00F4F3F1F0EFEDEBEAE8E6E4E2E0DEDCDA88
:1009EE00D8D6D3D1CFCCCAC7C4C2BFBCBAB7B4B1A4
:1009FE00AEABA8A6A39F9C999693908D8A8784816F
:100A0E007D7A7774716E6B6865625F5B5856535072
:100A1E004D4A4744423F3C3A3734322F2D2B28263D
:100A2E002422201E1C1A18161413110F0E0D0B0A59
:100A3E000908070605040303020201010000000075
:100A4E000000000101010202030404050607080963
:100A5E000B0C0D0F1012131517191B1D1F2123251B
:100A6E0027292C2E313336383B3D404346494B4ED9
:100A7E005154575A5D606366696C6F7376797C7EEC
:100A8E00E0151002EE40FF200130FF210131FF2260
:100A9E000132FF230133FF240134FF250135FFF11D
:100AAE00003200147F001EB001B101B201B301B4D7
:100ABE0001B501505A0000000000000000000000C7
:100ACE0050585147523B000000000000000000004B
:100ADE0051426200000000000000000060000000B3
:100AEE0000005056513B00000000000000000000C6
:100AFE000051370000000000000000000060000000
:100B0E00000000505351470000000000000000009C
:100B1E000000514A00000000000000000000504597
:100B2E0051365251533E00000000000000000000FC
:100B3E0000000000000000000000000000000000A7
:100B4E000000000000000000000000000000000097
:100B5E000000000000000000000000000000000087
:100B6E000000000000000000000000000000000077
:100B7E000000000000000000000000000000000067
:100B8E000000000000000000000000000000606196
:100B9E006263000000000000000000000000000082
:100BAE00000000000000505A00000000000000008D
:100BBE0000000050585147523B000000000000005A
:100BCE000000000000000000005142620000000022
:100BDE0000000000005056513B00000000000000D5
:100BEE00000000006100000000005137000000000E
:100BFE0000000000000050535147000000000000AC
:100C0E000000000000514A0000000000000000003B
:100C1E0000600000000000504551365251533E0016
:100C2E0000000000000000000000000000000000B6
:100C3E0000000000000000000000000000000000A6
:100C4E000000000000000000000000000000000096
:100C5E000000000000000000000000000000000086
:100C6E000000000000000000000000000000000076
:100C7E000000000000000000000000000000000066
:100C8E0000000000000000606162630000000000D0
:100C9E00000000000000000000505A00000000009C
:100CAE0000000000000000000000000050585147F6
:100CBE00523B0000000000000000000051426200A4
:100CCE000000000000000000600000000000505610
:100CDE00514A0000000000000000000000513700E3
:100CEE0000000000000000000050585147000000B6
:100CFE000000000000000000000000000000514A4B
:100D0E0000000000000000000000505D61000000C7
:100D1E0000000000000000000000000000000000C5
:100D2E00000000000000000000506B515F525300A5
:100D3E0000000000000000000000000000000000A5
:100D4E000000000000000000000000000000000095
:100D5E000000000000006061620000000000000062
:100D6E000000000000000000000000000000000075
:100D7E000000000000000000000000000000000065
:100D8E000000000000000000000000000000000055
:100D9E000000505A0000000000000000000000504B
:100DAE00585147523B0000000000000000000000B8
:100DBE000000000000514262000000000000000030
:100DCE00005056514A0000000000000000000000D4
:100DDE00513B000000000000000000006000000019
:100DEE000000505151425236000000000000000039
:100DFE0000000000000000000000000000606162C2
:100E0E00000000504A515352475345543E553B0043
:100E1E0000000000000000000000000000000000C4
:100E2E0000000000000000000000000000000000B4
:100E3E0000000000000000000000000000000000A4
:100E4E000000000000000000000000000000000094
:100E5E000000000000000000000000000000000084
:100E6E000000000000000000000000000000000074
:100E7E000000000000000000000000000000000064
:100E8E000000000000000000000000000060610093
:100E9E000000000000000000000000000000000044
:100EAE000000000000000000000000000000000034
:100EBE000000000000000000000000000000000024
:100ECE000000000000000000000000000000000014
:100EDE000000000000000000000000000000000004
:100EEE0000000000000000000000000000000000F4
:100EFE0000000000000000000000000000000000E4
:100F0E000062636465000000000000505A515352A5
:100F1E0043534A544F00000000000000505A5153F2
:100F2E005243534A544F00000000000000606162BB
:100F3E00636400505A51535243534A544F000000B9
:100F4E0000000000505A51535243534A544F000070
:100F5E000000000000505F515A5243534A544F55FF
:100F6E0053000000000000000000000000505F5120
:100F7E005A5243534A544F5553000000000000503C
:100F8E005F515A5243534A544F55530000000000CC
:100F9E0000606162636465505F515A52535343540B
:100FAE004A554F000000000000505F515A525353F3
:100FBE0043544A554F000000000000505F616263C9
:100FCE0064650000000000000000000000006000EA
:100FDE0000000000000000000000505D515852510A
:100FEE005345544A554F0000000000006061626393
:100FFE006465505D0000000000000000000000600D
:10100E000000000000000000000000505651515238
:10101E00425347544C554E000000000000000000A3
:10102E00000000505861626364650000000000001B
:10103E006000000000000000000000000000000042
:10104E0000005064515D524A53515453555600009E
:10105E0000000000506961626364650000000000DA
:10106E000060000000000000000000000000000012
:10107E0000000050530000000000504E0000000021
:10108E0000504C0000000000504500000000000021
:10109E000000000000504200000000005040000020
:1010AE00000000503B00000000005039000000001E
:1010BE00005037514E0000000000000000000000FC
:1010CE000000000000503E515100000000000000E2
:1010DE0000000050435156000000000000000000C8
:1010EE0000606100000000505651450000000000F5
:1010FE00000000000000514700000000000000004A
:10110E0000005055514A0000000000000000000091
:10111E000000000000005058514F00000000000079
:10112E000000000000514A00000000000000000016
:10113E0000606100000000505651390000000000B0
:10114E0000000000005058513E000000000000005A
:10115E00000000505A514500000000000000000041
:10116E000000000000000050565149000000000031
:10117E00000000000000514A0000000000000000C6
:10118E00000000610000000000514C000000000053
:10119E00000000000000514E0000000000000000A2
:1011AE00000000514500000000000000000000603B
:1011BE000000000000504E513B00000000000000F7
:1011CE0000000050515142000000000000000000DD
:1011DE000060610000000050555147000000000003
:1011EE0000000000005056514900000000000000B1
:1011FE0000000000514A0000000000000000000046
:10120E000000000000005055514C0000000000008E
:10121E00000000005056514A00000000000000007F
:10122E0000000061000000000051490000000000B5
:10123E00000000000000513B000000000000000014
:10124E0000000051420000000000000000000000FD
:10125E0000000000000051490000000000000000E6
:10126E0000000051420000000000000000000000DD
:10127E00610000000000514A000000000000000064
:10128E0000000051420000000000000000000000BD
:10129E00514C0000000000000000000000000000A3
:1012AE0000005053514200000000000000000000FA
:1012BE005053513700000000000000000000006194
:1012CE000000000000513E00000000000000000081
:1012DE0000505551430000000000000000000000C7
:1012EE0051450000000000000000000060000000FA
:1012FE0000005056514700000000000000000000A2
:10130E0000514A0000000000000000000060610073
:10131E000000005058514F00000000000000000077
:10132E000000514300000000000000000000504C7F
:10133E005134524F535300000000000000000000D3
:10134E000000000000513B00000000000000000003
:10135E00000051400000000000000000000000618D
:10136E0000000000005142000000000000000000DC
:10137E00000051430000000000000000000000517A
:10138E004700000000000000000000000000000008
:10139E00005053514C62630000000000000000003A
:1013AE0051470000000000000000000060610000D6
:1013BE0000005055513600000000000000000000F3
:1013CE00005140000000000000000000005051518C
:1013DE0042000000000000000000000000000000BD
:1013EE0000005145000000000000000000005053B6
:1013FE00514C0000000000000000000000610000E1
:10140E0000000051450000000000000000000050E8
:10141E004E514252530000000000000000000051E7
:10142E00400000000000000000000000000000006E
:10143E000000513B000000000000000000000051C1
:10144E0042000000000000000000000061000000EB
:10145E000000514700000000000000000000005195
:10146E00490000000000000000000000514A00008A
:10147E000000000000000000000000000000504EC0
:10148E00610000000000000000000050510000004C
:10149E00000000000000000000000000000000003E
:1014AE00620000000000000000005037514E0000A6
:1014BE000000000000000000503E515100000000EE
:1014CE0000000000000000000000000050435156D4
:1014DE0000000000000000000000504551560000C2
:1014EE0000000000000000006000000000005047F7
:1014FE000000000000000000000000504A5155009E
:10150E00000000000000000000504F515800000085
:10151E0000000000000000000000000000504A51D2
:10152E005800000000000000000000503951560025
:10153E00000000000000000000606100000000508C
:10154E0058513E00000000000000000000505A51AB
:10155E0045000000000000000000005056514900F8
:10156E00000000000000000000000000000000006D
:10157E00514A0000000000000000000000514C0025
:10158E0000000000000000000000610000000000EC
:10159E00514E000000000000000000000051450008
:1015AE00000000600000000000504E513B000000A3
:1015BE00000000000000000000000000005051512B
:1015CE00420000000000000000000050555147008E
:1015DE0000000000000000000060610000000050EC
:1015EE005651490000000000000000000000514A62
:1015FE00000000000000000000005055514C00009B
:10160E000000000000000000000000000000505626
:10161E00514A000000000000000000000051490087
:10162E00000000000000000000006100000000004B
:10163E00513B00000000000000000000005142007D
:10164E0000000000000000000000514900000000F2
:10165E0000000000000000000000000000514200E9
:10166E0000000000000000000000514A00000000D1
:10167E000000000000000061000000000051420068
:10168E0000000000000000000000514C00000000AF
:10169E000000000000005053514200000000000006
:1016AE000000000000000000000050535137000001
:1016BE00000000000000000000513E00000000008D
:1016CE000000000000606100000000505551430012
:1016DE000000000000000000000051450000000066
:1016EE0000000000000050565147000000000000AE
:1016FE000000000000000000000000514A00000041
:10170E00000000000000005058514F000000000083
:10171E0000000000000061000000000051430000C6
:10172E000000000000000000504C5134524F535343
:10173E00000000000000000000513B00000000000F
:10174E0000000000000000000000000051400000FA
:10175E0000000000000000000051420000000000E8
:10176E000000000000006100000000005143000076
:10177E0000000000000000000051470000000000C3
:10178E0000000000005053514C6263000000000046
:10179E0000000000000000000000514700000000A3
:1017AE0000000000000050555136000000000000FF
:1017BE000000000000610000000000514000000029
:1017CE0000000000000000505651420000000000D2
:1017DE000000000000005145000000000000000065
:1017EE0000006000000000005058513A0000000058
:1017FE000000000000000051420000000000000048
:10180E00000000606100000000505A5146000000C8
:10181E000000000000000000514200000000000027
:10182E0000000000505A5132525853565451000085
:10183E000000000000000000000000005139000010
:10184E00000000000000000000513E0000000000FB
:10185E000000000000006100000000005140000088
:10186E0000000000626364000051420000000000AE
:10187E0000000000000051450000000000000000C4
:10188E000000000000000000505A514A0000000005
:10189E0000000000000000514500000000000000A4
:1018AE00000000606100000000505D51535237008F
:1018BE000000000000000000505A513E620000007F
:1018CE000000000000000051430000000000000076
:1018DE00000000000000000000505D514752530010
:1018EE00000000000000000000514A00000000004F
:1018FE000000000000606162000000505B51470074
:10190E00000000000000000000505A51430000008B
:10191E000000000000000000513E0000000000002A
:10192E000000000060000000000050565138525078
:10193E000000000000000000000051400000000008
:10194E000000000000000061000000000051440093
:10195E0000000000000000000000514700000000E1
:10196E0000006200000000514C000000000000006A
:10197E0000000000000000000000514700000000C1
:10198E000000000000005056514452530000000069
:10199E000000000000006100000000005140000047
:1019AE0000000000000000005058513A5252000052
:1019BE00000000000000005056514262000000007E
:1019CE000000000000000000000000005146000072
:1019DE0000000000000000005053514900000000BC
:1019EE0000000000000000610000000000514E00E9
:1019FE000000000000000000005058514900000097
:101A0E0000000000000000505A5146000000000087
:101A1E000000000000000000000000005142000025
:101A2E000000000000000000505A513B5256535324
:101A3E0000000000000000000061000000000051E6
:101A4E0042000000000000000000000051470000AE
:101A5E00000000000000000000514A0000000000DD
:101A6E0000000000006000626300005063513F0000
:101A7E00000000000000000000506451470000000C
:101A8E000000000000000060610000000050665180
:101A9E004B000000000000000000005068514E0096
:101AAE00000000000000000000505C512D52555304
:101ABE00515439000000000000000000000000003A
:101ACE00505A51345251636400000000000000501F
:101ADE005A51395251000000000000000000006110
:101AEE006200000050585151523D000000000000AD
:101AFE000000000000524000000000000000000046
:101B0E00000052450000000000000000006061006F
:101B1E00000000505C5158524000000000000000D0
:101B2E000000505F0052390000000000000000006D
:101B3E000000620000000000522D000000000000B6
:101B4E0000000000005239000000000000000000FC
:101B5E00505C515852400000000000000000000090
:101B6E000000000000505F51585245000000000078
:101B7E0000000000000052390000000000000000CC
:101B8E00000000620000000000524500000000004E
:101B9E0000000000000052400000000000000000A5
:101BAE00000000523D0000000000000000006061D7
:101BBE0000000000505C5155522D53515439000015
:101BCE000000000000505A5151523463640000006E
:101BDE0000000000606162000000505A51515239FD
:101BEE0000000000000000000050585151523D000E
:101BFE000000000000000000000052400000000045
:101C0E00000000000000000000000000005245002F
:101C1E000000000000000000505C515852400000CF
:101C2E0000000000000000606162000000505F5183
:101C3E005852390000000000000000000000522D34
:101C4E0000000000000000000000005239000000FB
:101C5E00000000000000606100000000505C515860
:101C6E005240000000000000000000505F5158522A
:101C7E0045000000000000000000000062000000AF
:101C8E000000523900000000000000000000005269
:101C9E00450000000000000000005061514062004D
:101CAE000000000000000000000000000000505F77
:101CBE00513D52580000000000000000000051315C
:101CCE0000533D00000000000000000061006300B2
:101CDE00000051380000000000000000000000511C
:101CEE003D00000000000000000000005140000018
:101CFE000000000000000000000000000000005185
:101D0E0044000000000000000000000051490000E7
:101D1E000000000000000000006100000000005103
:101D2E0044000000000000000000000051400000D0
:101D3E00000000000000000000513100533D000083
:101D4E0000000000000000000000000000513800FC
:101D5E0063000000000000000000513D0000000084
:101D6E000000000000000061000000000051400073
:101D7E00000000600062000000504461000000009E
:101D8E000000000000005049515C000000000000FF
:101D9E00000000000000000000005044515A0000F6
:101DAE0000000000000000005040515800000000EC
:101DBE00000000000000606100000000505A515801
:101DCE005253532F543B00000000000000505C5152
:101DDE00366263640000000000000000513B00000A
:101DEE000000000000000000000000000000005194
:101DFE00420000000000000000000050476100009B
:101E0E000000000000000000600000000000505CB8
:101E1E00514200000000000000000000505A513BEB
:101E2E000000000000000000000050585142000069
:101E3E000000000000000000000000000000505AEA
:101E4E00512F525300000000000000000000513BD3
:101E5E000000000000000000000060616200000051
:101E6E00505C5142000000000000000000000051D4
:101E7E004700000000000000000000505F51475274
:101E8E0053533B0000000000000000000000000063
:101E9E000000514200630000000000000000505A94
:101EAE00513B6200000000000000000000610000D5
:101EBE000000005142000000000000000000005031
:101ECE005C512D5255535154390000000000000052
:101EDE000051340000640000000000000060006249
:101EEE00630000505A5139525100000000000000AA
:101EFE0000005058513D52510000000000000000FB
:101F0E0000006100000000005140000000000000D1
:101F1E00000000000051450000000000000000001D
:101F2E0000505C51405258000000000000000000BC
:101F3E00000000000000505F5139525800000000B0
:101F4E00000000000000512D000000000000000005
:101F5E000000006100000000005139000000000088
:101F6E000000000000505C5140525800000000007C
:101F7E0000000000505F5145525800000000000064
:101F8E0000000000000000000000513900000000B9
:101F9E00000000000000005145000000000000009D
:101FAE000000000061000000000051400000000031
:101FBE0000000000000000513D00000000600062C3
:101FCE00000000505C512D52555351543900000001
:101FDE0000000000000000000000505A5134525121
:101FEE00636400000000000000505A513952510045
:101FFE000000000000000000006162000000505868
:10200E005151523D0000000000000000000000523F
:10201E0040000000000000000000000052450000DB
:10202E0000000000000000606100000000505C51E4
:10203E00585240000000000000000000505F515850
:10204E005239000000000000000000000062000095
:10205E00000000522D0000000000000000000000F3
:10206E005239000000000000000000505C51585230
:10207E004000000000000000000000000000000012
:10208E00505F515852450000000000000000000053
:10209E000052390000000000000000000000620045
:1020AE00000000005245000000000000000000503B
:1020BE0061514062000000000000000000505F51BE
:1020CE003D5258000000000000000000000000001B
:1020DE00000000512F00533B0000000000000000E4
:1020EE000051360063000000000000000000610097
:1020FE0000000000513B0000000000000000000046
:10210E000051420000000000006200000000514734
:10211E0000000000000000000000000000000000B1
:10212E0000514200000000000000000000503B6122
:10213E000000000000000000000060000000000031
:10214E00505F51420000000000000000000050638C
:10215E00512F525A533B0000000000000000505F08
:10216E005136626300000000000000000000000015
:10217E000000505F513B0000000000000000000016
:10218E00005142000000000000000000000061004D
:10219E000000000051470000000000000000000099
:1021AE0000514200000000600000000000505A5133
:1021BE003B000000000000000000000000000000D6
:1021CE0000505F51420000000000000000000000BF
:1021DE00512F523B00000000000000000000616221
:1021EE00000000005136000000000000000000005A
:1021FE0000513B00000000000000000000005142B2
:10220E0000000000000000000000000000000000C0
:10221E000051470000000000000000000000514285
:10222E0000000000600000000000006100000000DF
:10223E00503B000000000000000000000050425122
:10224E005C00000000000000000000504951665282
:10225E005A533D0000000000000000000000000086
:10226E000050440000630000000000000000503DDC
:10227E005164525800000000000000000060000091
:10228E0000000050390000000000000000000000B7
:10229E0050455161525500000000000000000050F2
:1022AE004900000000000000000000000061620014
:1022BE0000005038515F5253000000000000000033
:1022CE000050400000000000000000000000000070
:1022DE000000000050470000000000000000000059
:1022EE0000504C00000000000000000000005040B4
:1022FE0000000000000000000000000000000000D0
:10230E000050470000000000000000000000504C8C
:10231E00000000000000000000000060000000004F
:10232E000050380000000000000000000000504087
:10233E0061620000000000000000005047515C0088
:10234E00000000000000000000000000000000502F
:10235E00495166525A533D000000000000000050E3
:10236E0044000063000000000000000000616200F5
:10237E000000503D51645258000000000000000063
:10238E000050390000000000000000000000504521
:10239E0051615255000000000000000000000000D6
:1023AE000000005049000000000000000000000086
:1023BE005038515F52530000000000000000000032
:1023CE00000000000050400000000000000000006F
:1023DE000000504700000000000000000000005008
:1023EE004C00000000000000000000000000000093
:1023FE0000005040000000000000000000000050EF
:10240E004700000000000000000000000000000077
:10241E000000504C000000000000000000000050C2
:10242E003800000000000061000000005040006213
:10243E00000000000000000000000000000000503E
:10244E0047515C00000000000000000000504951A0
:10245E0066525A533D0000000000000000000000CC
:10246E000000005044000063000000000000000067
:10247E00503D516452580000000000000000005012
:10248E003900000000000000000000000061620042
:10249E0000005040515F5253000000000000000049
:1024AE0000504700000000000000000000006061C6
:1024BE006200000050615158525553495444553DE5
:1024CE0000000000000000000000000000000000FE
:1024DE0000000000000000000000000000000000EE
:1024EE0000000000000000000000000000000000DE
:1024FE0000000000000000000000000000000000CE
:10250E0000000000000000000000000000000000BD
:10251E0000000000000000000000000000000000AD
:10252E00000000000000000000000000000000009D
:10253E0000000000000000000000000000006061CC
:10254E0062636465000000000000000000000000EF
:10255E00000000000000000000000000000000006D
:03256E00000070FA
:102574003F0600000000000000E1F505B5006BB166
:00000001FF
