:100000003EC158C157C1CAC255C154C153C152C1E2
:1000100051C150C14FC14EC14DC14CC14BC17F8276
:1000200085888B8F9295989B9EA1A4A7AAADB0B30B
:10003000B5B8BBBEC1C3C6C8CBCDD0D2D5D7D9DB2E
:10004000DDDFE1E3E5E7E9EBECEEEFF1F2F3F5F606
:10005000F7F8F9FAFAFBFCFCFDFDFDFEFEFEFEFEE4
:10006000FEFEFDFDFCFCFBFBFAF9F8F7F6F5F4F3F8
:10007000F1F0EFEDEBEAE8E6E4E2E0DEDCDAD8D638
:10008000D3D1CFCCCAC7C4C2BFBCBAB7B4B1AEAB70
:10009000A8A6A39F9C999693908D8A8784817D7A48
:1000A0007774716E6B6865625F5B585653504D4A4A
:1000B0004744423F3C3A3734322F2D2B2826242206
:1000C000201E1C1A18161413110F0E0D0B0A090806
:1000D00007060504030302020101000000000000FE
:1000E00000010101020203040405060708090B0CC4
:1000F0000D0F1012131517191B1D1F21232527295A
:100100002C2E313336383B3D404346494B4E5154FB
:10011000575A5D606366696C6F7376797C7E000008
:1001200000000000000000000000010101010101C9
:1001300001010101010101010101010101020202AC
:100140000202020202020303030303040404040480
:10015000050505060606070707080809090A0B0B27
:100160000C0D0D0E0F1011121314151618191B1C5F
:100170001E20222326282A2D2F3235383C3F434784
:100180004B5054595F646A71777E868E969FA9B3EF
:10019000BDC9D5E1EFFD0000000000000000E00A4D
:1001A00010C80040FF30FF310020012105F196000A
:1001B00032007F640000B001B1005058313F00317F
:1001C000005053005054005056313F0031005054FD
:1001D000005053005051313F0031005051005054F5
:1001E000005058313F0031005056005054005053D9
:1001F000313F0031005053005054005056313F0001
:10020000310050580000005054313F00310050512F
:100210000000005051313F003100000000005051FB
:10022000313F003100505600505900505D313F00C1
:100230003100505B005059005058313F00310000F0
:10024000005054005058313F003100505600505477
:10025000005053313F00310050530050540050566D
:10026000313F00310050580000005054313F003100
:10027000005051000000505100C01C0070001124BB
:100280001FBECFE5D2E0DEBFCDBF10E0A0E6B0E0FC
:10029000ECE7FEE002C005900D92AE36B107D9F74B
:1002A00011E0AEE6B0E001C01D92A130B107E1F768
:1002B00016D1E2C5A5CECF93DF93EC0188818823C8
:1002C00009F467C069838A8181111B826130A1F0C2
:1002D000613030F06230F1F0633009F059C02EC067
:1002E000888190E0019767E070E06BD5FC01E259EE
:1002F000FF4F208131813BC08FEF8B83888190E05D
:10030000019767E070E05DD5FC01E259FF4F228163
:1003100033812DC0888190E0019767E070E051D56E
:10032000FC01E259FF4F84818B838FEF9FEFAFEF8A
:10033000BFEF8C839D83AE83BF8326C08A818823D1
:1003400039F5888190E0019767E070E03AD5FC01CB
:10035000E259FF4F84818B83888190E0019767E0A9
:1003600070E02FD5FC01E259FF4F2581368180E0F6
:10037000922F990F990F6FEF70E035D580E090E0E4
:100380006C837D838E839F83188619861A861B86CD
:100390001A82DF91CF910895FF920F931F93CF930D
:1003A000DF93EA01F22E482F4150473008F044C055
:1003B00088EE93E018D580E49FE115D59B0121508C
:1003C0003040842F90E067E070E0FBD4FC01E259FC
:1003D000FF4F3183208388EE93E0BE0104D580E493
:1003E0009FE101D59B0121503040842F90E067E0D0
:1003F00070E0E7D4FC01E259FF4F33832283842F5E
:1004000090E067E070E0DDD4FC01E259FF4FF48238
:1004100088EE93E0B801E7D480E49FE1E4D49B0147
:1004200021503040842F90E067E070E0CAD4FC0196
:10043000E259FF4F36832583DF91CF911F910F91B2
:10044000FF900895CF93DF93EC018881882311F406
:100450008FEF42C08A81882311F080E03DC0CE0139
:10046000049660E074E091D28823A9F18981882301
:1004700061F48B8190E001968F3F910518F0CE01D9
:1004800061E01AC08B818F5F25C089818130B1F412
:100490002B81888190E0019767E070E092D4FC01A5
:1004A000E259FF4F848130E02150304090E08217C4
:1004B000930774F0CE0162E0FEDE0DC089818330C7
:1004C00051F48B8190E002971CF481E08A8303C091
:1004D0008B8181508B838B81DF91CF910895C7D120
:1004E00079D208D060E47FE180E090E0E9D1D5D115
:1004F0007ED2FFCF0F931F93CF93DF931092000113
:10050000C0E0D0E001E01FE7CE0161E170E059D426
:10051000FC01E656FF4F108ACE0161E170E051D434
:10052000FC01E656FF4F1482CE0161E170E049D430
:1005300082569F4F60E0BFDECE0161E170E041D4A2
:10054000FC01E656FF4F0683CE0161E170E039D42D
:10055000FC01E656FF4F1082CE0161E170E031D41C
:10056000FC01E656FF4F1183CE0161E170E029D412
:10057000FC01E656FF4F1282CE0161E170E021D40A
:10058000FC01E656FF4F13822196C630D10509F0D3
:10059000BBCFDF91CF911F910F9108951F920F92C2
:1005A0000FB60F921124DF92EF92FF920F931F93D9
:1005B0002F933F934F935F936F937F938F939F936B
:1005C000AF93BF93CF93DF93EF93FF931FBCDBD326
:1005D000EE24FF24C0E0D0E00C2FDD2ECE0161E13F
:1005E00070E0EFD386569F4F71D0182FCE0161E196
:1005F00070E0E7D386569F4F24D1CE0161E170E0D1
:10060000E0D382569F4F1EDF612F70E061157105A8
:1006100039F090E0009721F0D4D3892F8F5F01C08B
:1006200080E0282F30E0802F9D2D61E170E0C9D35C
:10063000FC01E656FF4F60892115310549F070E055
:100640006115710529F0C901BCD3892F8F5F01C0E5
:1006500080E090E08F579040E80EF91E2196C6305A
:10066000D10509F0B9CFC70186509D4F6FEF70E0FB
:10067000A8D364EF75E0CBD3CB0177FF02C080E055
:1006800090E060910001009739F070E0611571050C
:1006900019F097D39F5F01C090E098BDFF91EF9153
:1006A000DF91CF91BF91AF919F918F917F916F918A
:1006B0005F914F913F912F911F910F91FF90EF907C
:1006C000DF900F900FBE0F901F901895FC012091A6
:1006D0006000309161004091620050916300809110
:1006E000600090916100A0916200B09163006DE0A4
:1006F000880F991FAA1FBB1F6A95D1F782279327DE
:10070000A427B5278093600090936100A0936200B6
:10071000B0936300209160003091610040916200CD
:10072000509163008091600090916100A0916200FF
:10073000B091630071E1B695A795979587957A95E5
:10074000D1F782279327A427B52780936000909341
:100750006100A0936200B09363002091600030912B
:10076000610040916200509163008091600090911F
:100770006100A0916200B091630065E0880F991F4D
:10078000AA1FBB1F6A95D1F782279327A427B527F5
:100790008093600090936100A0936200B093630027
:1007A00080818330C1F1843028F4813061F082305F
:1007B00041F40FC08530D1F18530A8F1863009F4BD
:1007C0003EC08FE70895E381F0E0E25EFF4F849141
:1007D00008958381803448F4838190E06EEF7FEF49
:1007E000F0D29C0121583F4F14C08381803C40F4DB
:1007F0008381282F30E020543040220F331F09C05E
:10080000838120EC30E0281B3109220F331F215057
:100810003F4F822F089593818181891710F08FEFC8
:10082000089580E008958381815808958091600043
:1008300090916100A0916200B09163000895818160
:100840000895FC018381228190E0820F911D9070B8
:1008500083830895FC01E256FE4FE4918E2F0895A4
:10086000FC01E256FE4F25913491C9010895F89498
:10087000B99AC19883E28ABD81E083BF12BE19BCD8
:1008800018BC80E880BF1CBC1FBC1EBC1BBC1DBCB0
:1008900080E489BF82E087BD089512BE83B781607E
:1008A00083BF1FBC89B7806489BF78940895F8948A
:1008B00083B7887F83BF89B78F7B89BFC19808952D
:1008C000BF92CF92DF92EF92FF920F931F93CF933D
:1008D000DF939B01AC0160E07DE281E391E0AAD26D
:1008E000B22EC32ED42E052FC1E0D0E081E0E82E39
:1008F000F12C1C2F97010C2E02C0220F331F0A94DB
:10090000E2F740E050E06B2D7C2D8D2D902F92D2A0
:10091000215030402F3F310541F038F01F5F2196C4
:10092000C031D10531F72FEF30E02EBD80B7807F89
:10093000182B10BFDF91CF911F910F91FF90EF9077
:10094000DF90CF90BF900895FC01248135814681CE
:10095000578180819181A281B381281739074A0785
:100960005B0730F0148215821682178281E00895A9
:1009700084819581A681B7810196A11DB11D8483D3
:100980009583A683B78380E00895FC012481358197
:100990004681578180819181A281B38128173907CF
:1009A0004A075B0730F0148215821682178281E0B5
:1009B00008952481358146815781CB01A0E0B0E0C4
:1009C000820F931FA41FB51F84839583A683B783CB
:1009D00080E008951092990010929800109268009B
:1009E0001092690010926A0010926B000895AF9205
:1009F000BF92CF92DF92EF92FF920F931F9380915D
:100A00009800909199000196909399008093980096
:100A1000019720DF9FE0A92EA82290E0807F9070B0
:100A20008038910509F4EAC08138910504F58034D5
:100A3000910509F490C08134910564F480329105E8
:100A400009F45DC08033910509F46FC0409709F047
:100A500090C12EC08036910509F4AFC08037910552
:100A600009F4CAC08035910509F083C182C0803C79
:100A7000910509F419C1813C91056CF4803A910506
:100A800009F4DCC0803B910509F4E2C0803991058E
:100A900009F06FC1B5C0803E910509F425C1803FC2
:100AA000910509F435C1803D910509F062C106C187
:100AB0008091980090919900D3DE6CE370E093D11F
:100AC00080E49FE190D180E090E0615070408040F0
:100AD00090406093640070936500809366009093EB
:100AE0006700109268001092690010926A001092DC
:100AF0006B0080919800909199000296DAC08091E5
:100B00009800909199000196909399008093980095
:100B10000197A0DE282F8A2D90E061E170E051D18D
:100B2000FC01E656FF4F208324C1809198009091EC
:100B300099000196909399008093980001978ADE1E
:100B4000282F8A2D90E061E170E03BD1FC01E65650
:100B5000FF4F208B0EC180919800909199000196D3
:100B60009093990080939800019774DE8093000120
:100B700000C18091980090919900019690939900FE
:100B800080939800019766DEE82FEF77F0E0E25E51
:100B9000FE4FE4918A2D90E061E170E012D1DC011A
:100BA000A656BF4F1296EC938A2D90E061E170E05B
:100BB00008D182569F4F60E01DC08A2D90E061E110
:100BC00070E0FFD0FC01E656FF4F8481882351F48A
:100BD0008A2D90E061E170E0F4D0FC01E656FF4F11
:100BE0001282C7C08A2D90E061E170E0EAD082569F
:100BF0009F4F63E060DBBDC05ADEFFCF7BDCB9C036
:100C0000809198009091990001969093990080931B
:100C1000980001971FDE8F7090E061E170E0D1D005
:100C2000FC01E656FF4F23818A2D90E061E170E0E0
:100C3000C8D0FC01E656FF4F23839BC08A2D90E06D
:100C400061E170E0BED0FC01E656FF4F138291C017
:100C500080919800909199000196909399008093CB
:100C600098000197F7DD282F883008F082C08A2D80
:100C700090E061E170E0A5D0FC01E656FF4F2483CF
:100C80008A2D90E061E170E09CD082569F4F60E039
:100C900012DB8A2D90E061E170E093D0FC01E65612
:100CA000FF4F81E0868365C0809198009091990004
:100CB000D7DD90939900809398005BC08091980055
:100CC00090919900019690939900809398000197D4
:100CD000C1DD282F8A2D90E061E170E072D0FC0127
:100CE000E656FF4F218345C080919800909199006E
:100CF000019690939900809398000197ABDD082F9F
:100D000010E002C074DE1F5F1017E0F381E032C014
:100D10008091980090919900A3DD6C0180919800DA
:100D2000909199000296909399008093980098DD95
:100D30007C0180919800909199000396909399007E
:100D400080939800019786DDB82E8091980090914D
:100D5000990086DD8C01809198009091990002960F
:100D600090939900809398008A2DB601A7012B2DAE
:100D700013DB80E01F910F91FF90EF90DF90CF90F9
:100D8000BF90AF9008951F9384E690E0DDDD882347
:100D9000B1F0209198003091990080916C00909171
:100DA0006D002817390720F01092990010929800D2
:100DB00010E01DDE882319F41F5F1630D1F71F9154
:100DC00008955527002480FF02C0060E571F660FA6
:100DD000771F6115710521F096958795009799F712
:100DE000952F802D0895AA1BBB1B51E107C0AA1F98
:100DF000BB1FA617B70710F0A61BB70B881F991FBC
:100E00005A95A9F780959095BC01CD01089597FB5F
:100E1000092E07260AD077FD04D0E5DF06D0002092
:100E20001AF4709561957F4F0895F6F79095819526
:100E30009F4F0895A1E21A2EAA1BBB1BFD010DC0F6
:100E4000AA1FBB1FEE1FFF1FA217B307E407F5077A
:100E500020F0A21BB30BE40BF50B661F771F881F56
:100E6000991F1A9469F760957095809590959B01EC
:0C0E7000AC01BD01CF010895F894FFCF44
:0E0E7C00B5006BB13F06000000000000DF0073
:00000001FF
